{
  "address": "0x323b7881da59212A0F6A086A2a94cA01c8dce587",
  "abi": [
    {
      "inputs": [
        {
          "internalType": "address",
          "name": "_VRFCoordinator",
          "type": "address"
        },
        {
          "internalType": "address",
          "name": "_LinkToken",
          "type": "address"
        },
        {
          "internalType": "bytes32",
          "name": "_keyHash",
          "type": "bytes32"
        },
        {
          "internalType": "uint256",
          "name": "_fee",
          "type": "uint256"
        }
      ],
      "stateMutability": "nonpayable",
      "type": "constructor"
    },
    {
      "anonymous": false,
      "inputs": [
        {
          "indexed": true,
          "internalType": "address",
          "name": "owner",
          "type": "address"
        },
        {
          "indexed": true,
          "internalType": "address",
          "name": "approved",
          "type": "address"
        },
        {
          "indexed": true,
          "internalType": "uint256",
          "name": "tokenId",
          "type": "uint256"
        }
      ],
      "name": "Approval",
      "type": "event"
    },
    {
      "anonymous": false,
      "inputs": [
        {
          "indexed": true,
          "internalType": "address",
          "name": "owner",
          "type": "address"
        },
        {
          "indexed": true,
          "internalType": "address",
          "name": "operator",
          "type": "address"
        },
        {
          "indexed": false,
          "internalType": "bool",
          "name": "approved",
          "type": "bool"
        }
      ],
      "name": "ApprovalForAll",
      "type": "event"
    },
    {
      "anonymous": false,
      "inputs": [
        {
          "indexed": true,
          "internalType": "uint256",
          "name": "tokenId",
          "type": "uint256"
        },
        {
          "indexed": false,
          "internalType": "string",
          "name": "tokenURI",
          "type": "string"
        }
      ],
      "name": "CreatedSnake",
      "type": "event"
    },
    {
      "anonymous": false,
      "inputs": [
        {
          "indexed": true,
          "internalType": "uint256",
          "name": "tokenId",
          "type": "uint256"
        },
        {
          "indexed": true,
          "internalType": "uint256",
          "name": "randomNumber",
          "type": "uint256"
        }
      ],
      "name": "CreatedUnfinishedSnake",
      "type": "event"
    },
    {
      "anonymous": false,
      "inputs": [
        {
          "indexed": true,
          "internalType": "address",
          "name": "from",
          "type": "address"
        },
        {
          "indexed": true,
          "internalType": "address",
          "name": "to",
          "type": "address"
        },
        {
          "indexed": true,
          "internalType": "uint256",
          "name": "tokenId",
          "type": "uint256"
        }
      ],
      "name": "Transfer",
      "type": "event"
    },
    {
      "anonymous": false,
      "inputs": [
        {
          "indexed": true,
          "internalType": "bytes32",
          "name": "requestId",
          "type": "bytes32"
        },
        {
          "indexed": true,
          "internalType": "uint256",
          "name": "tokenId",
          "type": "uint256"
        }
      ],
      "name": "requestedSnake",
      "type": "event"
    },
    {
      "inputs": [
        {
          "internalType": "address",
          "name": "to",
          "type": "address"
        },
        {
          "internalType": "uint256",
          "name": "tokenId",
          "type": "uint256"
        }
      ],
      "name": "approve",
      "outputs": [],
      "stateMutability": "nonpayable",
      "type": "function"
    },
    {
      "inputs": [
        {
          "internalType": "address",
          "name": "owner",
          "type": "address"
        }
      ],
      "name": "balanceOf",
      "outputs": [
        {
          "internalType": "uint256",
          "name": "",
          "type": "uint256"
        }
      ],
      "stateMutability": "view",
      "type": "function"
    },
    {
      "inputs": [],
      "name": "create",
      "outputs": [
        {
          "internalType": "bytes32",
          "name": "requestId",
          "type": "bytes32"
        }
      ],
      "stateMutability": "nonpayable",
      "type": "function"
    },
    {
      "inputs": [],
      "name": "fee",
      "outputs": [
        {
          "internalType": "uint256",
          "name": "",
          "type": "uint256"
        }
      ],
      "stateMutability": "view",
      "type": "function"
    },
    {
      "inputs": [
        {
          "internalType": "uint256",
          "name": "tokenId",
          "type": "uint256"
        }
      ],
      "name": "finishMint",
      "outputs": [],
      "stateMutability": "nonpayable",
      "type": "function"
    },
    {
      "inputs": [
        {
          "internalType": "string",
          "name": "imageURI",
          "type": "string"
        },
        {
          "internalType": "string",
          "name": "randomColor",
          "type": "string"
        }
      ],
      "name": "formatTokenURI",
      "outputs": [
        {
          "internalType": "string",
          "name": "",
          "type": "string"
        }
      ],
      "stateMutability": "pure",
      "type": "function"
    },
    {
      "inputs": [
        {
          "internalType": "uint256",
          "name": "randomNumber",
          "type": "uint256"
        }
      ],
      "name": "generateRandomColor",
      "outputs": [
        {
          "internalType": "string",
          "name": "",
          "type": "string"
        }
      ],
      "stateMutability": "pure",
      "type": "function"
    },
    {
      "inputs": [
        {
          "internalType": "string",
          "name": "randomColor",
          "type": "string"
        }
      ],
      "name": "generateSVG",
      "outputs": [
        {
          "internalType": "string",
          "name": "finalSVG",
          "type": "string"
        }
      ],
      "stateMutability": "pure",
      "type": "function"
    },
    {
      "inputs": [
        {
          "internalType": "uint256",
          "name": "tokenId",
          "type": "uint256"
        }
      ],
      "name": "getApproved",
      "outputs": [
        {
          "internalType": "address",
          "name": "",
          "type": "address"
        }
      ],
      "stateMutability": "view",
      "type": "function"
    },
    {
      "inputs": [
        {
          "internalType": "uint256",
          "name": "begin",
          "type": "uint256"
        },
        {
          "internalType": "string",
          "name": "str",
          "type": "string"
        }
      ],
      "name": "getChar",
      "outputs": [
        {
          "internalType": "string",
          "name": "",
          "type": "string"
        }
      ],
      "stateMutability": "pure",
      "type": "function"
    },
    {
      "inputs": [
        {
          "internalType": "address",
          "name": "owner",
          "type": "address"
        },
        {
          "internalType": "address",
          "name": "operator",
          "type": "address"
        }
      ],
      "name": "isApprovedForAll",
      "outputs": [
        {
          "internalType": "bool",
          "name": "",
          "type": "bool"
        }
      ],
      "stateMutability": "view",
      "type": "function"
    },
    {
      "inputs": [],
      "name": "keyHash",
      "outputs": [
        {
          "internalType": "bytes32",
          "name": "",
          "type": "bytes32"
        }
      ],
      "stateMutability": "view",
      "type": "function"
    },
    {
      "inputs": [],
      "name": "maxNumberOfPathCommands",
      "outputs": [
        {
          "internalType": "uint256",
          "name": "",
          "type": "uint256"
        }
      ],
      "stateMutability": "view",
      "type": "function"
    },
    {
      "inputs": [],
      "name": "maxNumberOfPaths",
      "outputs": [
        {
          "internalType": "uint256",
          "name": "",
          "type": "uint256"
        }
      ],
      "stateMutability": "view",
      "type": "function"
    },
    {
      "inputs": [],
      "name": "name",
      "outputs": [
        {
          "internalType": "string",
          "name": "",
          "type": "string"
        }
      ],
      "stateMutability": "view",
      "type": "function"
    },
    {
      "inputs": [
        {
          "internalType": "uint256",
          "name": "tokenId",
          "type": "uint256"
        }
      ],
      "name": "ownerOf",
      "outputs": [
        {
          "internalType": "address",
          "name": "",
          "type": "address"
        }
      ],
      "stateMutability": "view",
      "type": "function"
    },
    {
      "inputs": [
        {
          "internalType": "bytes32",
          "name": "requestId",
          "type": "bytes32"
        },
        {
          "internalType": "uint256",
          "name": "randomness",
          "type": "uint256"
        }
      ],
      "name": "rawFulfillRandomness",
      "outputs": [],
      "stateMutability": "nonpayable",
      "type": "function"
    },
    {
      "inputs": [
        {
          "internalType": "bytes32",
          "name": "",
          "type": "bytes32"
        }
      ],
      "name": "requestIdToSender",
      "outputs": [
        {
          "internalType": "address",
          "name": "",
          "type": "address"
        }
      ],
      "stateMutability": "view",
      "type": "function"
    },
    {
      "inputs": [
        {
          "internalType": "bytes32",
          "name": "",
          "type": "bytes32"
        }
      ],
      "name": "requestIdToTokenId",
      "outputs": [
        {
          "internalType": "uint256",
          "name": "",
          "type": "uint256"
        }
      ],
      "stateMutability": "view",
      "type": "function"
    },
    {
      "inputs": [
        {
          "internalType": "address",
          "name": "from",
          "type": "address"
        },
        {
          "internalType": "address",
          "name": "to",
          "type": "address"
        },
        {
          "internalType": "uint256",
          "name": "tokenId",
          "type": "uint256"
        }
      ],
      "name": "safeTransferFrom",
      "outputs": [],
      "stateMutability": "nonpayable",
      "type": "function"
    },
    {
      "inputs": [
        {
          "internalType": "address",
          "name": "from",
          "type": "address"
        },
        {
          "internalType": "address",
          "name": "to",
          "type": "address"
        },
        {
          "internalType": "uint256",
          "name": "tokenId",
          "type": "uint256"
        },
        {
          "internalType": "bytes",
          "name": "_data",
          "type": "bytes"
        }
      ],
      "name": "safeTransferFrom",
      "outputs": [],
      "stateMutability": "nonpayable",
      "type": "function"
    },
    {
      "inputs": [
        {
          "internalType": "address",
          "name": "operator",
          "type": "address"
        },
        {
          "internalType": "bool",
          "name": "approved",
          "type": "bool"
        }
      ],
      "name": "setApprovalForAll",
      "outputs": [],
      "stateMutability": "nonpayable",
      "type": "function"
    },
    {
      "inputs": [
        {
          "internalType": "bytes4",
          "name": "interfaceId",
          "type": "bytes4"
        }
      ],
      "name": "supportsInterface",
      "outputs": [
        {
          "internalType": "bool",
          "name": "",
          "type": "bool"
        }
      ],
      "stateMutability": "view",
      "type": "function"
    },
    {
      "inputs": [
        {
          "internalType": "string",
          "name": "svg",
          "type": "string"
        }
      ],
      "name": "svgToImageURI",
      "outputs": [
        {
          "internalType": "string",
          "name": "",
          "type": "string"
        }
      ],
      "stateMutability": "pure",
      "type": "function"
    },
    {
      "inputs": [],
      "name": "symbol",
      "outputs": [
        {
          "internalType": "string",
          "name": "",
          "type": "string"
        }
      ],
      "stateMutability": "view",
      "type": "function"
    },
    {
      "inputs": [],
      "name": "tokenCounter",
      "outputs": [
        {
          "internalType": "uint256",
          "name": "",
          "type": "uint256"
        }
      ],
      "stateMutability": "view",
      "type": "function"
    },
    {
      "inputs": [
        {
          "internalType": "uint256",
          "name": "",
          "type": "uint256"
        }
      ],
      "name": "tokenIdToRandomNumber",
      "outputs": [
        {
          "internalType": "uint256",
          "name": "",
          "type": "uint256"
        }
      ],
      "stateMutability": "view",
      "type": "function"
    },
    {
      "inputs": [
        {
          "internalType": "uint256",
          "name": "tokenId",
          "type": "uint256"
        }
      ],
      "name": "tokenURI",
      "outputs": [
        {
          "internalType": "string",
          "name": "",
          "type": "string"
        }
      ],
      "stateMutability": "view",
      "type": "function"
    },
    {
      "inputs": [
        {
          "internalType": "address",
          "name": "from",
          "type": "address"
        },
        {
          "internalType": "address",
          "name": "to",
          "type": "address"
        },
        {
          "internalType": "uint256",
          "name": "tokenId",
          "type": "uint256"
        }
      ],
      "name": "transferFrom",
      "outputs": [],
      "stateMutability": "nonpayable",
      "type": "function"
    }
  ],
  "transactionHash": "0xbcb9b2b33961d81c88ea7e7dcae8dd86d7523e7fca355bf1ec0b959b8fa6760e",
  "args": [
    "0xb3dCcb4Cf7a26f6cf6B120Cf5A73875B7BBc655B",
    "0x01BE23585060835E02B77ef475b0Cc51aA1e0709",
    "0x2ed0feb3e7fd2022120aa84fab1945545a9f2ffc9076fd6156fa96eaff4c1311",
    "100000000000000000"
  ],
  "numDeployments": 1,
  "solcInputHash": "924b9b8fd292a067a062e20196e83f26",
  "bytecode": "0x60c06040523480156200001157600080fd5b5060405162004f3638038062004f3683398181016040528101906200003791906200025e565b83836040518060400160405280600581526020017f536e616b650000000000000000000000000000000000000000000000000000008152506040518060400160405280600381526020017f534e4100000000000000000000000000000000000000000000000000000000008152508160009080519060200190620000bd92919062000169565b508060019080519060200190620000d692919062000169565b5050508173ffffffffffffffffffffffffffffffffffffffff1660a08173ffffffffffffffffffffffffffffffffffffffff1660601b815250508073ffffffffffffffffffffffffffffffffffffffff1660808173ffffffffffffffffffffffffffffffffffffffff1660601b81525050505080600981905550816008819055506000600a8190555050505050620003c5565b828054620001779062000312565b90600052602060002090601f0160209004810192826200019b5760008555620001e7565b82601f10620001b657805160ff1916838001178555620001e7565b82800160010185558215620001e7579182015b82811115620001e6578251825591602001919060010190620001c9565b5b509050620001f69190620001fa565b5090565b5b8082111562000215576000816000905550600101620001fb565b5090565b6000815190506200022a8162000377565b92915050565b600081519050620002418162000391565b92915050565b6000815190506200025881620003ab565b92915050565b600080600080608085870312156200027557600080fd5b6000620002858782880162000219565b9450506020620002988782880162000219565b9350506040620002ab8782880162000230565b9250506060620002be8782880162000247565b91505092959194509250565b6000620002d782620002e8565b9050919050565b6000819050919050565b600073ffffffffffffffffffffffffffffffffffffffff82169050919050565b6000819050919050565b600060028204905060018216806200032b57607f821691505b6020821081141562000342576200034162000348565b5b50919050565b7f4e487b7100000000000000000000000000000000000000000000000000000000600052602260045260246000fd5b6200038281620002ca565b81146200038e57600080fd5b50565b6200039c81620002de565b8114620003a857600080fd5b50565b620003b68162000308565b8114620003c257600080fd5b50565b60805160601c60a05160601c614b3e620003f860003960008181610fbb0152611fd001526000611f940152614b3e6000f3fe608060405234801561001057600080fd5b50600436106101cf5760003560e01c80636352211e11610104578063c21bf36f116100a2578063ddca3f4311610071578063ddca3f431461058c578063e985e9c5146105aa578063efc81a8c146105da578063f209dddb146105f8576101cf565b8063c21bf36f146104f0578063c87b56dd1461050e578063cd4700d41461053e578063d082e3811461056e576101cf565b806395d89b41116100de57806395d89b411461046a5780639c1cd79514610488578063a22cb465146104b8578063b88d4fde146104d4576101cf565b80636352211e146103ee57806370a082311461041e57806394985ddd1461044e576101cf565b806330d871c6116101715780634ee21a631161014b5780634ee21a6314610354578063560292721461038457806361728f39146103b4578063624194c7146103d2576101cf565b806330d871c6146102ea57806342842e0e1461031a57806348e896ab14610336576101cf565b8063095ea7b3116101ad578063095ea7b314610252578063219c0eee1461026e57806322881f881461029e57806323b872dd146102ce576101cf565b806301ffc9a7146101d457806306fdde0314610204578063081812fc14610222575b600080fd5b6101ee60048036038101906101e99190612b60565b610628565b6040516101fb9190613423565b60405180910390f35b61020c61070a565b60405161021991906134c7565b60405180910390f35b61023c60048036038101906102379190612c5f565b61079c565b604051610249919061337e565b60405180910390f35b61026c60048036038101906102679190612a96565b610821565b005b61028860048036038101906102839190612afb565b610939565b604051610295919061337e565b60405180910390f35b6102b860048036038101906102b39190612afb565b61096c565b6040516102c59190613769565b60405180910390f35b6102e860048036038101906102e39190612990565b610984565b005b61030460048036038101906102ff9190612bb2565b6109e4565b60405161031191906134c7565b60405180910390f35b610334600480360381019061032f9190612990565b610a7d565b005b61033e610a9d565b60405161034b9190613769565b60405180910390f35b61036e60048036038101906103699190612c88565b610aa3565b60405161037b91906134c7565b60405180910390f35b61039e60048036038101906103999190612bf3565b610c3b565b6040516103ab91906134c7565b60405180910390f35b6103bc610ccb565b6040516103c9919061343e565b60405180910390f35b6103ec60048036038101906103e79190612c5f565b610cd1565b005b61040860048036038101906104039190612c5f565b610e4f565b604051610415919061337e565b60405180910390f35b6104386004803603810190610433919061292b565b610f01565b6040516104459190613769565b60405180910390f35b61046860048036038101906104639190612b24565b610fb9565b005b610472611055565b60405161047f91906134c7565b60405180910390f35b6104a2600480360381019061049d9190612c5f565b6110e7565b6040516104af9190613769565b60405180910390f35b6104d260048036038101906104cd9190612a5a565b6110ff565b005b6104ee60048036038101906104e991906129df565b611115565b005b6104f8611177565b6040516105059190613769565b60405180910390f35b61052860048036038101906105239190612c5f565b61117d565b60405161053591906134c7565b60405180910390f35b61055860048036038101906105539190612bb2565b6112cf565b60405161056591906134c7565b60405180910390f35b6105766112fa565b6040516105839190613769565b60405180910390f35b610594611300565b6040516105a19190613769565b60405180910390f35b6105c460048036038101906105bf9190612954565b611306565b6040516105d19190613423565b60405180910390f35b6105e261139a565b6040516105ef919061343e565b60405180910390f35b610612600480360381019061060d9190612c5f565b611464565b60405161061f91906134c7565b60405180910390f35b60007f80ac58cd000000000000000000000000000000000000000000000000000000007bffffffffffffffffffffffffffffffffffffffffffffffffffffffff1916827bffffffffffffffffffffffffffffffffffffffffffffffffffffffff191614806106f357507f5b5e139f000000000000000000000000000000000000000000000000000000007bffffffffffffffffffffffffffffffffffffffffffffffffffffffff1916827bffffffffffffffffffffffffffffffffffffffffffffffffffffffff1916145b80610703575061070282611574565b5b9050919050565b60606000805461071990613a4c565b80601f016020809104026020016040519081016040528092919081815260200182805461074590613a4c565b80156107925780601f1061076757610100808354040283529160200191610792565b820191906000526020600020905b81548152906001019060200180831161077557829003601f168201915b5050505050905090565b60006107a7826115de565b6107e6576040517f08c379a00000000000000000000000000000000000000000000000000000000081526004016107dd90613689565b60405180910390fd5b6004600083815260200190815260200160002060009054906101000a900473ffffffffffffffffffffffffffffffffffffffff169050919050565b600061082c82610e4f565b90508073ffffffffffffffffffffffffffffffffffffffff168373ffffffffffffffffffffffffffffffffffffffff16141561089d576040517f08c379a0000000000000000000000000000000000000000000000000000000008152600401610894906136e9565b60405180910390fd5b8073ffffffffffffffffffffffffffffffffffffffff166108bc61164a565b73ffffffffffffffffffffffffffffffffffffffff1614806108eb57506108ea816108e561164a565b611306565b5b61092a576040517f08c379a0000000000000000000000000000000000000000000000000000000008152600401610921906135a9565b60405180910390fd5b6109348383611652565b505050565b600d6020528060005260406000206000915054906101000a900473ffffffffffffffffffffffffffffffffffffffff1681565b600e6020528060005260406000206000915090505481565b61099561098f61164a565b8261170b565b6109d4576040517f08c379a00000000000000000000000000000000000000000000000000000000081526004016109cb90613729565b60405180910390fd5b6109df8383836117e9565b505050565b606060006040518060400160405280601a81526020017f646174613a696d6167652f7376672b786d6c3b6261736536342c00000000000081525090506000610a4a84604051602001610a369190613277565b604051602081830303815290604052611a50565b905060008282604051602001610a6192919061328e565b6040516020818303038152906040529050809350505050919050565b610a9883838360405180602001604052806000815250611115565b505050565b600c5481565b60606000600184610ab49190613877565b9050600060018583610ac69190613958565b610ad09190613877565b67ffffffffffffffff811115610b0f577f4e487b7100000000000000000000000000000000000000000000000000000000600052604160045260246000fd5b6040519080825280601f01601f191660200182016040528015610b415781602001600182028036833780820191505090505b50905060005b8583610b539190613958565b8111610c2f578460018783610b689190613877565b610b729190613958565b81518110610ba9577f4e487b7100000000000000000000000000000000000000000000000000000000600052603260045260246000fd5b602001015160f81c60f81b828281518110610bed577f4e487b7100000000000000000000000000000000000000000000000000000000600052603260045260246000fd5b60200101907effffffffffffffffffffffffffffffffffffffffffffffffffffffffffffff1916908160001a9053508080610c2790613aaf565b915050610b47565b50809250505092915050565b606060006040518060400160405280601d81526020017f646174613a6170706c69636174696f6e2f6a736f6e3b6261736536342c000000815250905080610ca28486604051602001610c8e929190613318565b604051602081830303815290604052611a50565b604051602001610cb392919061328e565b60405160208183030381529060405291505092915050565b60085481565b6000610cdc8261117d565b511115610d1e576040517f08c379a0000000000000000000000000000000000000000000000000000000008152600401610d1590613709565b60405180910390fd5b80600a5411610d62576040517f08c379a0000000000000000000000000000000000000000000000000000000008152600401610d5990613629565b60405180910390fd5b6000600f60008381526020019081526020016000205411610db8576040517f08c379a0000000000000000000000000000000000000000000000000000000008152600401610daf90613749565b60405180910390fd5b6000600f60008381526020019081526020016000205490506000610ddb82611464565b90506000610de8826112cf565b90506000610df5826109e4565b90506000610e038285610c3b565b9050610e0f8682611bef565b857fc9c6bed38ab8961739c00f654e0637e50973c1ade1689fa5ea0ce6678b13110a84604051610e3f91906134c7565b60405180910390a2505050505050565b6000806002600084815260200190815260200160002060009054906101000a900473ffffffffffffffffffffffffffffffffffffffff169050600073ffffffffffffffffffffffffffffffffffffffff168173ffffffffffffffffffffffffffffffffffffffff161415610ef8576040517f08c379a0000000000000000000000000000000000000000000000000000000008152600401610eef906135e9565b60405180910390fd5b80915050919050565b60008073ffffffffffffffffffffffffffffffffffffffff168273ffffffffffffffffffffffffffffffffffffffff161415610f72576040517f08c379a0000000000000000000000000000000000000000000000000000000008152600401610f69906135c9565b60405180910390fd5b600360008373ffffffffffffffffffffffffffffffffffffffff1673ffffffffffffffffffffffffffffffffffffffff168152602001908152602001600020549050919050565b7f000000000000000000000000000000000000000000000000000000000000000073ffffffffffffffffffffffffffffffffffffffff163373ffffffffffffffffffffffffffffffffffffffff1614611047576040517f08c379a000000000000000000000000000000000000000000000000000000000815260040161103e906136c9565b60405180910390fd5b6110518282611c63565b5050565b60606001805461106490613a4c565b80601f016020809104026020016040519081016040528092919081815260200182805461109090613a4c565b80156110dd5780601f106110b2576101008083540402835291602001916110dd565b820191906000526020600020905b8154815290600101906020018083116110c057829003601f168201915b5050505050905090565b600f6020528060005260406000206000915090505481565b61111161110a61164a565b8383611d09565b5050565b61112661112061164a565b8361170b565b611165576040517f08c379a000000000000000000000000000000000000000000000000000000000815260040161115c90613729565b60405180910390fd5b61117184848484611e76565b50505050565b600b5481565b6060611188826115de565b6111c7576040517f08c379a00000000000000000000000000000000000000000000000000000000081526004016111be90613669565b60405180910390fd5b60006006600084815260200190815260200160002080546111e790613a4c565b80601f016020809104026020016040519081016040528092919081815260200182805461121390613a4c565b80156112605780601f1061123557610100808354040283529160200191611260565b820191906000526020600020905b81548152906001019060200180831161124357829003601f168201915b505050505090506000611271611ed2565b90506000815114156112875781925050506112ca565b6000825111156112bc5780826040516020016112a492919061328e565b604051602081830303815290604052925050506112ca565b6112c584611ee9565b925050505b919050565b606081826040516020016112e49291906132b2565b6040516020818303038152906040529050919050565b600a5481565b60095481565b6000600560008473ffffffffffffffffffffffffffffffffffffffff1673ffffffffffffffffffffffffffffffffffffffff16815260200190815260200160002060008373ffffffffffffffffffffffffffffffffffffffff1673ffffffffffffffffffffffffffffffffffffffff16815260200190815260200160002060009054906101000a900460ff16905092915050565b60006113aa600854600954611f90565b905033600d600083815260200190815260200160002060006101000a81548173ffffffffffffffffffffffffffffffffffffffff021916908373ffffffffffffffffffffffffffffffffffffffff1602179055506000600a54905080600e6000848152602001908152602001600020819055506001600a5461142c9190613877565b600a8190555080827fdf71ae7b1c48e560d59d6696d23edb847d08834ce8b8f6cd02fc0f00401550af60405160405180910390a35090565b606060006040518060400160405280601081526020017f3031323334353637383961626364656600000000000000000000000000000000815250905060006040518060400160405280600181526020017f2300000000000000000000000000000000000000000000000000000000000000815250905060005b600381101561156957816115346010876001856114fa9190613877565b60405160200161150b929190613784565b6040516020818303038152906040528051906020012060001c61152e9190613b0c565b85610aa3565b60405160200161154592919061328e565b6040516020818303038152906040529150808061156190613aaf565b9150506114dd565b508092505050919050565b60007f01ffc9a7000000000000000000000000000000000000000000000000000000007bffffffffffffffffffffffffffffffffffffffffffffffffffffffff1916827bffffffffffffffffffffffffffffffffffffffffffffffffffffffff1916149050919050565b60008073ffffffffffffffffffffffffffffffffffffffff166002600084815260200190815260200160002060009054906101000a900473ffffffffffffffffffffffffffffffffffffffff1673ffffffffffffffffffffffffffffffffffffffff1614159050919050565b600033905090565b816004600083815260200190815260200160002060006101000a81548173ffffffffffffffffffffffffffffffffffffffff021916908373ffffffffffffffffffffffffffffffffffffffff160217905550808273ffffffffffffffffffffffffffffffffffffffff166116c583610e4f565b73ffffffffffffffffffffffffffffffffffffffff167f8c5be1e5ebec7d5bd14f71427d1e84f3dd0314c0f7b2291e5b200ac8c7c3b92560405160405180910390a45050565b6000611716826115de565b611755576040517f08c379a000000000000000000000000000000000000000000000000000000000815260040161174c90613589565b60405180910390fd5b600061176083610e4f565b90508073ffffffffffffffffffffffffffffffffffffffff168473ffffffffffffffffffffffffffffffffffffffff1614806117cf57508373ffffffffffffffffffffffffffffffffffffffff166117b78461079c565b73ffffffffffffffffffffffffffffffffffffffff16145b806117e057506117df8185611306565b5b91505092915050565b8273ffffffffffffffffffffffffffffffffffffffff1661180982610e4f565b73ffffffffffffffffffffffffffffffffffffffff161461185f576040517f08c379a000000000000000000000000000000000000000000000000000000000815260040161185690613509565b60405180910390fd5b600073ffffffffffffffffffffffffffffffffffffffff168273ffffffffffffffffffffffffffffffffffffffff1614156118cf576040517f08c379a00000000000000000000000000000000000000000000000000000000081526004016118c690613549565b60405180910390fd5b6118da8383836120f2565b6118e5600082611652565b6001600360008573ffffffffffffffffffffffffffffffffffffffff1673ffffffffffffffffffffffffffffffffffffffff16815260200190815260200160002060008282546119359190613958565b925050819055506001600360008473ffffffffffffffffffffffffffffffffffffffff1673ffffffffffffffffffffffffffffffffffffffff168152602001908152602001600020600082825461198c9190613877565b92505081905550816002600083815260200190815260200160002060006101000a81548173ffffffffffffffffffffffffffffffffffffffff021916908373ffffffffffffffffffffffffffffffffffffffff160217905550808273ffffffffffffffffffffffffffffffffffffffff168473ffffffffffffffffffffffffffffffffffffffff167fddf252ad1be2c89b69c2b068fc378daa952ba7f163c4a11628f55a4df523b3ef60405160405180910390a4611a4b8383836120f7565b505050565b6060600082511415611a7357604051806020016040528060008152509050611bea565b6000604051806060016040528060408152602001614ac96040913990506000600360028551611aa29190613877565b611aac91906138cd565b6004611ab891906138fe565b90506000602082611ac99190613877565b67ffffffffffffffff811115611b08577f4e487b7100000000000000000000000000000000000000000000000000000000600052604160045260246000fd5b6040519080825280601f01601f191660200182016040528015611b3a5781602001600182028036833780820191505090505b509050818152600183018586518101602084015b81831015611ba9576003830192508251603f8160121c168501518253600182019150603f81600c1c168501518253600182019150603f8160061c168501518253600182019150603f8116850151825360018201915050611b4e565b600389510660018114611bc35760028114611bd357611bde565b613d3d60f01b6002830352611bde565b603d60f81b60018303525b50505050508093505050505b919050565b611bf8826115de565b611c37576040517f08c379a0000000000000000000000000000000000000000000000000000000008152600401611c2e90613609565b60405180910390fd5b80600660008481526020019081526020016000209080519060200190611c5e929190612725565b505050565b6000600d600084815260200190815260200160002060009054906101000a900473ffffffffffffffffffffffffffffffffffffffff1690506000600e6000858152602001908152602001600020549050611cbd82826120fc565b82600f60008381526020019081526020016000208190555082817f1f4f326a7e8fbe5a8c82518ee8b0f2294819676f35f418eccb2adafa85e556ec60405160405180910390a350505050565b8173ffffffffffffffffffffffffffffffffffffffff168373ffffffffffffffffffffffffffffffffffffffff161415611d78576040517f08c379a0000000000000000000000000000000000000000000000000000000008152600401611d6f90613569565b60405180910390fd5b80600560008573ffffffffffffffffffffffffffffffffffffffff1673ffffffffffffffffffffffffffffffffffffffff16815260200190815260200160002060008473ffffffffffffffffffffffffffffffffffffffff1673ffffffffffffffffffffffffffffffffffffffff16815260200190815260200160002060006101000a81548160ff0219169083151502179055508173ffffffffffffffffffffffffffffffffffffffff168373ffffffffffffffffffffffffffffffffffffffff167f17307eab39ab6107e8899845ad3d59bd9653f200f220920489ca2b5937696c3183604051611e699190613423565b60405180910390a3505050565b611e818484846117e9565b611e8d8484848461211a565b611ecc576040517f08c379a0000000000000000000000000000000000000000000000000000000008152600401611ec3906134e9565b60405180910390fd5b50505050565b606060405180602001604052806000815250905090565b6060611ef4826115de565b611f33576040517f08c379a0000000000000000000000000000000000000000000000000000000008152600401611f2a906136a9565b60405180910390fd5b6000611f3d611ed2565b90506000815111611f5d5760405180602001604052806000815250611f88565b80611f67846122b1565b604051602001611f7892919061328e565b6040516020818303038152906040525b915050919050565b60007f000000000000000000000000000000000000000000000000000000000000000073ffffffffffffffffffffffffffffffffffffffff16634000aea07f000000000000000000000000000000000000000000000000000000000000000084866000604051602001612004929190613459565b6040516020818303038152906040526040518463ffffffff1660e01b8152600401612031939291906133e5565b602060405180830381600087803b15801561204b57600080fd5b505af115801561205f573d6000803e3d6000fd5b505050506040513d601f19601f820116820180604052508101906120839190612ad2565b5060006120a684600030600760008981526020019081526020016000205461245e565b9050600160076000868152602001908152602001600020546120c89190613877565b60076000868152602001908152602001600020819055506120e9848261249a565b91505092915050565b505050565b505050565b6121168282604051806020016040528060008152506124cd565b5050565b600061213b8473ffffffffffffffffffffffffffffffffffffffff16612528565b156122a4578373ffffffffffffffffffffffffffffffffffffffff1663150b7a0261216461164a565b8786866040518563ffffffff1660e01b81526004016121869493929190613399565b602060405180830381600087803b1580156121a057600080fd5b505af19250505080156121d157506040513d601f19601f820116820180604052508101906121ce9190612b89565b60015b612254573d8060008114612201576040519150601f19603f3d011682016040523d82523d6000602084013e612206565b606091505b5060008151141561224c576040517f08c379a0000000000000000000000000000000000000000000000000000000008152600401612243906134e9565b60405180910390fd5b805181602001fd5b63150b7a0260e01b7bffffffffffffffffffffffffffffffffffffffffffffffffffffffff1916817bffffffffffffffffffffffffffffffffffffffffffffffffffffffff1916149150506122a9565b600190505b949350505050565b606060008214156122f9576040518060400160405280600181526020017f30000000000000000000000000000000000000000000000000000000000000008152509050612459565b600082905060005b6000821461232b57808061231490613aaf565b915050600a8261232491906138cd565b9150612301565b60008167ffffffffffffffff81111561236d577f4e487b7100000000000000000000000000000000000000000000000000000000600052604160045260246000fd5b6040519080825280601f01601f19166020018201604052801561239f5781602001600182028036833780820191505090505b5090505b60008514612452576001826123b89190613958565b9150600a856123c79190613b0c565b60306123d39190613877565b60f81b81838151811061240f577f4e487b7100000000000000000000000000000000000000000000000000000000600052603260045260246000fd5b60200101907effffffffffffffffffffffffffffffffffffffffffffffffffffffffffffff1916908160001a905350600a8561244b91906138cd565b94506123a3565b8093505050505b919050565b6000848484846040516020016124779493929190613482565b6040516020818303038152906040528051906020012060001c9050949350505050565b600082826040516020016124af92919061324b565b60405160208183030381529060405280519060200120905092915050565b6124d7838361254b565b6124e4600084848461211a565b612523576040517f08c379a000000000000000000000000000000000000000000000000000000000815260040161251a906134e9565b60405180910390fd5b505050565b6000808273ffffffffffffffffffffffffffffffffffffffff163b119050919050565b600073ffffffffffffffffffffffffffffffffffffffff168273ffffffffffffffffffffffffffffffffffffffff1614156125bb576040517f08c379a00000000000000000000000000000000000000000000000000000000081526004016125b290613649565b60405180910390fd5b6125c4816115de565b15612604576040517f08c379a00000000000000000000000000000000000000000000000000000000081526004016125fb90613529565b60405180910390fd5b612610600083836120f2565b6001600360008473ffffffffffffffffffffffffffffffffffffffff1673ffffffffffffffffffffffffffffffffffffffff16815260200190815260200160002060008282546126609190613877565b92505081905550816002600083815260200190815260200160002060006101000a81548173ffffffffffffffffffffffffffffffffffffffff021916908373ffffffffffffffffffffffffffffffffffffffff160217905550808273ffffffffffffffffffffffffffffffffffffffff16600073ffffffffffffffffffffffffffffffffffffffff167fddf252ad1be2c89b69c2b068fc378daa952ba7f163c4a11628f55a4df523b3ef60405160405180910390a4612721600083836120f7565b5050565b82805461273190613a4c565b90600052602060002090601f016020900481019282612753576000855561279a565b82601f1061276c57805160ff191683800117855561279a565b8280016001018555821561279a579182015b8281111561279957825182559160200191906001019061277e565b5b5090506127a791906127ab565b5090565b5b808211156127c45760008160009055506001016127ac565b5090565b60006127db6127d6846137d2565b6137ad565b9050828152602081018484840111156127f357600080fd5b6127fe848285613a0a565b509392505050565b600061281961281484613803565b6137ad565b90508281526020810184848401111561283157600080fd5b61283c848285613a0a565b509392505050565b60008135905061285381614a55565b92915050565b60008135905061286881614a6c565b92915050565b60008151905061287d81614a6c565b92915050565b60008135905061289281614a83565b92915050565b6000813590506128a781614a9a565b92915050565b6000815190506128bc81614a9a565b92915050565b600082601f8301126128d357600080fd5b81356128e38482602086016127c8565b91505092915050565b600082601f8301126128fd57600080fd5b813561290d848260208601612806565b91505092915050565b60008135905061292581614ab1565b92915050565b60006020828403121561293d57600080fd5b600061294b84828501612844565b91505092915050565b6000806040838503121561296757600080fd5b600061297585828601612844565b925050602061298685828601612844565b9150509250929050565b6000806000606084860312156129a557600080fd5b60006129b386828701612844565b93505060206129c486828701612844565b92505060406129d586828701612916565b9150509250925092565b600080600080608085870312156129f557600080fd5b6000612a0387828801612844565b9450506020612a1487828801612844565b9350506040612a2587828801612916565b925050606085013567ffffffffffffffff811115612a4257600080fd5b612a4e878288016128c2565b91505092959194509250565b60008060408385031215612a6d57600080fd5b6000612a7b85828601612844565b9250506020612a8c85828601612859565b9150509250929050565b60008060408385031215612aa957600080fd5b6000612ab785828601612844565b9250506020612ac885828601612916565b9150509250929050565b600060208284031215612ae457600080fd5b6000612af28482850161286e565b91505092915050565b600060208284031215612b0d57600080fd5b6000612b1b84828501612883565b91505092915050565b60008060408385031215612b3757600080fd5b6000612b4585828601612883565b9250506020612b5685828601612916565b9150509250929050565b600060208284031215612b7257600080fd5b6000612b8084828501612898565b91505092915050565b600060208284031215612b9b57600080fd5b6000612ba9848285016128ad565b91505092915050565b600060208284031215612bc457600080fd5b600082013567ffffffffffffffff811115612bde57600080fd5b612bea848285016128ec565b91505092915050565b60008060408385031215612c0657600080fd5b600083013567ffffffffffffffff811115612c2057600080fd5b612c2c858286016128ec565b925050602083013567ffffffffffffffff811115612c4957600080fd5b612c55858286016128ec565b9150509250929050565b600060208284031215612c7157600080fd5b6000612c7f84828501612916565b91505092915050565b60008060408385031215612c9b57600080fd5b6000612ca985828601612916565b925050602083013567ffffffffffffffff811115612cc657600080fd5b612cd2858286016128ec565b9150509250929050565b612ce58161398c565b82525050565b612cf48161399e565b82525050565b612d03816139aa565b82525050565b612d1a612d15826139aa565b613af8565b82525050565b6000612d2b82613834565b612d35818561384a565b9350612d45818560208601613a19565b612d4e81613bf9565b840191505092915050565b6000612d648261383f565b612d6e818561385b565b9350612d7e818560208601613a19565b612d8781613bf9565b840191505092915050565b6000612d9d8261383f565b612da7818561386c565b9350612db7818560208601613a19565b80840191505092915050565b6000612dd161049b8361386c565b9150612ddc82613c0a565b61049b82019050919050565b6000612df560328361385b565b9150612e00826141a8565b604082019050919050565b6000612e1860258361385b565b9150612e23826141f7565b604082019050919050565b6000612e3b601c8361385b565b9150612e4682614246565b602082019050919050565b6000612e5e60c08361386c565b9150612e698261426f565b60c082019050919050565b6000612e8160248361385b565b9150612e8c82614356565b604082019050919050565b6000612ea460198361385b565b9150612eaf826143a5565b602082019050919050565b6000612ec7602c8361385b565b9150612ed2826143ce565b604082019050919050565b6000612eea60388361385b565b9150612ef58261441d565b604082019050919050565b6000612f0d602a8361385b565b9150612f188261446c565b604082019050919050565b6000612f3060298361385b565b9150612f3b826144bb565b604082019050919050565b6000612f53602e8361385b565b9150612f5e8261450a565b604082019050919050565b6000612f7660318361386c565b9150612f8182614559565b603182019050919050565b6000612f9960048361386c565b9150612fa4826145a8565b600482019050919050565b6000612fbc60208361385b565b9150612fc7826145d1565b602082019050919050565b6000612fdf60028361386c565b9150612fea826145fa565b600282019050919050565b600061300260208361385b565b915061300d82614623565b602082019050919050565b600061302560318361385b565b91506130308261464c565b604082019050919050565b6000613048602c8361385b565b91506130538261469b565b604082019050919050565b600061306b602f8361385b565b9150613076826146ea565b604082019050919050565b600061308e60578361386c565b915061309982614739565b605782019050919050565b60006130b160268361386c565b91506130bc826147ae565b602682019050919050565b60006130d4601f8361385b565b91506130df826147fd565b602082019050919050565b60006130f760218361385b565b915061310282614826565b604082019050919050565b600061311a60538361386c565b915061312582614875565b605382019050919050565b600061313d601c8361385b565b9150613148826148ea565b602082019050919050565b600061316060318361385b565b915061316b82614913565b604082019050919050565b600061318360138361386c565b915061318e82614962565b601382019050919050565b60006131a660318361386c565b91506131b18261498b565b603182019050919050565b60006131c9600a8361386c565b91506131d4826149da565b600a82019050919050565b60006131ec60068361386c565b91506131f782614a03565b600682019050919050565b600061320f601e8361385b565b915061321a82614a2c565b602082019050919050565b61322e81613a00565b82525050565b61324561324082613a00565b613b02565b82525050565b60006132578285612d09565b6020820191506132678284613234565b6020820191508190509392505050565b60006132838284612d92565b915081905092915050565b600061329a8285612d92565b91506132a68284612d92565b91508190509392505050565b60006132bd8261310d565b91506132c882612f69565b91506132d48285612d92565b91506132df82612dc3565b91506132ea82613081565b91506132f68284612d92565b915061330182612e51565b915061330c826131df565b91508190509392505050565b600061332382613176565b915061332e826130a4565b915061333982613199565b91506133458285612d92565b915061335082612f8c565b915061335b826131bc565b91506133678284612d92565b915061337282612fd2565b91508190509392505050565b60006020820190506133936000830184612cdc565b92915050565b60006080820190506133ae6000830187612cdc565b6133bb6020830186612cdc565b6133c86040830185613225565b81810360608301526133da8184612d20565b905095945050505050565b60006060820190506133fa6000830186612cdc565b6134076020830185613225565b81810360408301526134198184612d20565b9050949350505050565b60006020820190506134386000830184612ceb565b92915050565b60006020820190506134536000830184612cfa565b92915050565b600060408201905061346e6000830185612cfa565b61347b6020830184613225565b9392505050565b60006080820190506134976000830187612cfa565b6134a46020830186613225565b6134b16040830185612cdc565b6134be6060830184613225565b95945050505050565b600060208201905081810360008301526134e18184612d59565b905092915050565b6000602082019050818103600083015261350281612de8565b9050919050565b6000602082019050818103600083015261352281612e0b565b9050919050565b6000602082019050818103600083015261354281612e2e565b9050919050565b6000602082019050818103600083015261356281612e74565b9050919050565b6000602082019050818103600083015261358281612e97565b9050919050565b600060208201905081810360008301526135a281612eba565b9050919050565b600060208201905081810360008301526135c281612edd565b9050919050565b600060208201905081810360008301526135e281612f00565b9050919050565b6000602082019050818103600083015261360281612f23565b9050919050565b6000602082019050818103600083015261362281612f46565b9050919050565b6000602082019050818103600083015261364281612faf565b9050919050565b6000602082019050818103600083015261366281612ff5565b9050919050565b6000602082019050818103600083015261368281613018565b9050919050565b600060208201905081810360008301526136a28161303b565b9050919050565b600060208201905081810360008301526136c28161305e565b9050919050565b600060208201905081810360008301526136e2816130c7565b9050919050565b60006020820190508181036000830152613702816130ea565b9050919050565b6000602082019050818103600083015261372281613130565b9050919050565b6000602082019050818103600083015261374281613153565b9050919050565b6000602082019050818103600083015261376281613202565b9050919050565b600060208201905061377e6000830184613225565b92915050565b60006040820190506137996000830185613225565b6137a66020830184613225565b9392505050565b60006137b76137c8565b90506137c38282613a7e565b919050565b6000604051905090565b600067ffffffffffffffff8211156137ed576137ec613bca565b5b6137f682613bf9565b9050602081019050919050565b600067ffffffffffffffff82111561381e5761381d613bca565b5b61382782613bf9565b9050602081019050919050565b600081519050919050565b600081519050919050565b600082825260208201905092915050565b600082825260208201905092915050565b600081905092915050565b600061388282613a00565b915061388d83613a00565b9250827fffffffffffffffffffffffffffffffffffffffffffffffffffffffffffffffff038211156138c2576138c1613b3d565b5b828201905092915050565b60006138d882613a00565b91506138e383613a00565b9250826138f3576138f2613b6c565b5b828204905092915050565b600061390982613a00565b915061391483613a00565b9250817fffffffffffffffffffffffffffffffffffffffffffffffffffffffffffffffff048311821515161561394d5761394c613b3d565b5b828202905092915050565b600061396382613a00565b915061396e83613a00565b92508282101561398157613980613b3d565b5b828203905092915050565b6000613997826139e0565b9050919050565b60008115159050919050565b6000819050919050565b60007fffffffff0000000000000000000000000000000000000000000000000000000082169050919050565b600073ffffffffffffffffffffffffffffffffffffffff82169050919050565b6000819050919050565b82818337600083830152505050565b60005b83811015613a37578082015181840152602081019050613a1c565b83811115613a46576000848401525b50505050565b60006002820490506001821680613a6457607f821691505b60208210811415613a7857613a77613b9b565b5b50919050565b613a8782613bf9565b810181811067ffffffffffffffff82111715613aa657613aa5613bca565b5b80604052505050565b6000613aba82613a00565b91507fffffffffffffffffffffffffffffffffffffffffffffffffffffffffffffffff821415613aed57613aec613b3d565b5b600182019050919050565b6000819050919050565b6000819050919050565b6000613b1782613a00565b9150613b2283613a00565b925082613b3257613b31613b6c565b5b828206905092915050565b7f4e487b7100000000000000000000000000000000000000000000000000000000600052601160045260246000fd5b7f4e487b7100000000000000000000000000000000000000000000000000000000600052601260045260246000fd5b7f4e487b7100000000000000000000000000000000000000000000000000000000600052602260045260246000fd5b7f4e487b7100000000000000000000000000000000000000000000000000000000600052604160045260246000fd5b6000601f19601f8301169050919050565b7f3b66696c6c2d6f7061636974793a313b2720643d274d203436352e313133323860008201527f31203437312e3335393337352043203436322e333038353934203436312e323260208201527f32363536203435382e303839383434203434392e353339303632203435372e3160408201527f3434353331203434332e3733383238312043203435322e35323334333820343160608201527f352e343630393338203339382e323134383434203338352e363332383132203260808201527f39352e303534363838203336322e3333353933382043203236302e343533313260a08201527f35203335342e353233343338203231392e383038353934203334342e3331323560c08201527f203230342e373338323831203333392e3634343533312043203131362e30343660e08201527f383735203331322e3139313430362038352e383034363838203235322e3832386101008201527f31323520313235203138332e3132352043203133342e383230333132203136356101208201527f2e3635363235203134322e383535343639203134372e353131373139203134326101408201527f2e383535343639203134322e3739363837352043203134322e383535343639206101608201527f3132382e333136343036203130342e3830303738312039352e393732363536206101808201527f38382e3031393533312039352e35303339303620432036302e353432393639206101a08201527f39342e3734323138382032382e3537303331322035392e3134303632352032386101c08201527f2e3537303331322034332e36363430363220432032382e3537303331322033326101e08201527f2e3037343231392036312e3733303436392033332e3133363731392038362e356102008201527f38353933382033372e373138373520432038362e3538353933382033372e37316102208201527f383735203131392e3333393834342034312e323936383735203133302e3034326102408201527f3936392036362e3136373936392043203133332e34303632352037332e3938306102608201527f343639203133312e3531353632352037372e363634303632203133382e3332386102808201527f3132352038352e3738393036322043203134352e3134303632352039332e39316102a08201527f30313536203136362e383637313838203130372e323338323831203137322e356102c08201527f3937363536203131342e35393337352043203139312e353335313536203133386102e08201527f2e393134303632203139302e3238313235203135392e333934353331203137316103008201527f2e353835393338203139312e3830303738312043203136332e383136343036206103208201527f3230352e323733343338203135372e333836373139203232342e3432313837356103408201527f203135372e333030373831203233342e3335353436392043203135372e3038356103608201527f393338203235382e3930363235203139322e353432393639203238392e3731386103808201527f3735203233382e373432313838203330352e3132383930362043203235382e366103a08201527f3833353934203331312e3738313235203330392e343736353632203333302e366103c08201527f3238393036203335312e363137313838203334372e30313137313920432034346103e08201527f332e383238313235203338322e383637313838203436332e39323936383820346104008201527f30302e303832303331203437322e373338323831203435302e373520432034376104208201527f392e353237333434203438392e373936383735203437362e36383735203439376104408201527f2e343732363536203436352e313133323831203437312e333539333735205a206104608201527f4d203436352e313133323831203437312e33353933373520272f3e000000000061048082015250565b7f4552433732313a207472616e7366657220746f206e6f6e20455243373231526560008201527f63656976657220696d706c656d656e7465720000000000000000000000000000602082015250565b7f4552433732313a207472616e736665722066726f6d20696e636f72726563742060008201527f6f776e6572000000000000000000000000000000000000000000000000000000602082015250565b7f4552433732313a20746f6b656e20616c7265616479206d696e74656400000000600082015250565b7f3b7374726f6b652d6f7061636974793a313b7374726f6b652d6d697465726c6960008201527f6d69743a343b2720643d274d20352e30373131373220372e343436373937204c60208201527f20322e36383733343420352e343732313039204c20322e33383035343720342e60408201527f313837383637204d20322e38323738393120352e343234383238204c20312e3360608201527f363535343720352e3031373337352027207472616e73666f726d3d276d61747260808201527f697828372e3134323835372c302c302c352e3631373937382c302c3029272f3e60a082015250565b7f4552433732313a207472616e7366657220746f20746865207a65726f2061646460008201527f7265737300000000000000000000000000000000000000000000000000000000602082015250565b7f4552433732313a20617070726f766520746f2063616c6c657200000000000000600082015250565b7f4552433732313a206f70657261746f7220717565727920666f72206e6f6e657860008201527f697374656e7420746f6b656e0000000000000000000000000000000000000000602082015250565b7f4552433732313a20617070726f76652063616c6c6572206973206e6f74206f7760008201527f6e6572206e6f7220617070726f76656420666f7220616c6c0000000000000000602082015250565b7f4552433732313a2062616c616e636520717565727920666f7220746865207a6560008201527f726f206164647265737300000000000000000000000000000000000000000000602082015250565b7f4552433732313a206f776e657220717565727920666f72206e6f6e657869737460008201527f656e7420746f6b656e0000000000000000000000000000000000000000000000602082015250565b7f45524337323155524953746f726167653a2055524920736574206f66206e6f6e60008201527f6578697374656e7420746f6b656e000000000000000000000000000000000000602082015250565b7f3c70617468207374796c653d27207374726f6b653a6e6f6e653b66696c6c2d7260008201527f756c653a6e6f6e7a65726f3b66696c6c3a000000000000000000000000000000602082015250565b7f227d5d2c00000000000000000000000000000000000000000000000000000000600082015250565b7f546f6b656e496420686173206e6f74206265656e206d696e7465642079657421600082015250565b7f227d000000000000000000000000000000000000000000000000000000000000600082015250565b7f4552433732313a206d696e7420746f20746865207a65726f2061646472657373600082015250565b7f45524337323155524953746f726167653a2055524920717565727920666f722060008201527f6e6f6e6578697374656e7420746f6b656e000000000000000000000000000000602082015250565b7f4552433732313a20617070726f76656420717565727920666f72206e6f6e657860008201527f697374656e7420746f6b656e0000000000000000000000000000000000000000602082015250565b7f4552433732314d657461646174613a2055524920717565727920666f72206e6f60008201527f6e6578697374656e7420746f6b656e0000000000000000000000000000000000602082015250565b7f3c70617468207374796c653d2766696c6c3a6e6f6e653b7374726f6b652d776960008201527f6474683a313b7374726f6b652d6c696e656361703a627574743b7374726f6b6560208201527f2d6c696e656a6f696e3a6d697465723b7374726f6b653a000000000000000000604082015250565b7f226465736372697074696f6e223a2022416e204e4654206261736564206f6e2060008201527f535647222c200000000000000000000000000000000000000000000000000000602082015250565b7f4f6e6c7920565246436f6f7264696e61746f722063616e2066756c66696c6c00600082015250565b7f4552433732313a20617070726f76616c20746f2063757272656e74206f776e6560008201527f7200000000000000000000000000000000000000000000000000000000000000602082015250565b7f3c7376672076657273696f6e3d27312e302720786d6c6e733d27687474703a2f60008201527f2f7777772e77332e6f72672f323030302f737667272077696474683d2735303060208201527f707827206865696768743d273530307078273e00000000000000000000000000604082015250565b7f746f6b656e55524920697320616c726561647920616c6c207365742100000000600082015250565b7f4552433732313a207472616e736665722063616c6c6572206973206e6f74206f60008201527f776e6572206e6f7220617070726f766564000000000000000000000000000000602082015250565b7f7b226e616d65223a20225356474e4654222c2000000000000000000000000000600082015250565b7f2261747472696275746573223a205b7b2274726169745f74797065223a20224360008201527f6f6c6f72222c202276616c7565223a2022000000000000000000000000000000602082015250565b7f22696d616765223a202200000000000000000000000000000000000000000000600082015250565b7f3c2f7376673e0000000000000000000000000000000000000000000000000000600082015250565b7f4e65656420746f207761697420666f7220436861696e6c696e6b205652460000600082015250565b614a5e8161398c565b8114614a6957600080fd5b50565b614a758161399e565b8114614a8057600080fd5b50565b614a8c816139aa565b8114614a9757600080fd5b50565b614aa3816139b4565b8114614aae57600080fd5b50565b614aba81613a00565b8114614ac557600080fd5b5056fe4142434445464748494a4b4c4d4e4f505152535455565758595a6162636465666768696a6b6c6d6e6f707172737475767778797a303132333435363738392b2fa2646970667358221220cbfc799fb97a438f13322903f90e4b6869ef97de07dc71c232de0fd01ffdf64864736f6c63430008010033",
  "devdoc": {
    "kind": "dev",
    "methods": {
      "approve(address,uint256)": {
        "details": "See {IERC721-approve}."
      },
      "balanceOf(address)": {
        "details": "See {IERC721-balanceOf}."
      },
      "getApproved(uint256)": {
        "details": "See {IERC721-getApproved}."
      },
      "isApprovedForAll(address,address)": {
        "details": "See {IERC721-isApprovedForAll}."
      },
      "name()": {
        "details": "See {IERC721Metadata-name}."
      },
      "ownerOf(uint256)": {
        "details": "See {IERC721-ownerOf}."
      },
      "safeTransferFrom(address,address,uint256)": {
        "details": "See {IERC721-safeTransferFrom}."
      },
      "safeTransferFrom(address,address,uint256,bytes)": {
        "details": "See {IERC721-safeTransferFrom}."
      },
      "setApprovalForAll(address,bool)": {
        "details": "See {IERC721-setApprovalForAll}."
      },
      "supportsInterface(bytes4)": {
        "details": "See {IERC165-supportsInterface}."
      },
      "symbol()": {
        "details": "See {IERC721Metadata-symbol}."
      },
      "tokenURI(uint256)": {
        "details": "See {IERC721Metadata-tokenURI}."
      },
      "transferFrom(address,address,uint256)": {
        "details": "See {IERC721-transferFrom}."
      }
    },
    "version": 1
  },
  "userdoc": {
    "kind": "user",
    "methods": {},
    "version": 1
  },
  "storageLayout": {
    "storage": [
      {
        "astId": 291,
        "contract": "contracts/Snake.sol:Snake",
        "label": "_name",
        "offset": 0,
        "slot": "0",
        "type": "t_string_storage"
      },
      {
        "astId": 293,
        "contract": "contracts/Snake.sol:Snake",
        "label": "_symbol",
        "offset": 0,
        "slot": "1",
        "type": "t_string_storage"
      },
      {
        "astId": 297,
        "contract": "contracts/Snake.sol:Snake",
        "label": "_owners",
        "offset": 0,
        "slot": "2",
        "type": "t_mapping(t_uint256,t_address)"
      },
      {
        "astId": 301,
        "contract": "contracts/Snake.sol:Snake",
        "label": "_balances",
        "offset": 0,
        "slot": "3",
        "type": "t_mapping(t_address,t_uint256)"
      },
      {
        "astId": 305,
        "contract": "contracts/Snake.sol:Snake",
        "label": "_tokenApprovals",
        "offset": 0,
        "slot": "4",
        "type": "t_mapping(t_uint256,t_address)"
      },
      {
        "astId": 311,
        "contract": "contracts/Snake.sol:Snake",
        "label": "_operatorApprovals",
        "offset": 0,
        "slot": "5",
        "type": "t_mapping(t_address,t_mapping(t_address,t_bool))"
      },
      {
        "astId": 1278,
        "contract": "contracts/Snake.sol:Snake",
        "label": "_tokenURIs",
        "offset": 0,
        "slot": "6",
        "type": "t_mapping(t_uint256,t_string_storage)"
      },
      {
        "astId": 79,
        "contract": "contracts/Snake.sol:Snake",
        "label": "nonces",
        "offset": 0,
        "slot": "7",
        "type": "t_mapping(t_bytes32,t_uint256)"
      },
      {
        "astId": 2102,
        "contract": "contracts/Snake.sol:Snake",
        "label": "keyHash",
        "offset": 0,
        "slot": "8",
        "type": "t_bytes32"
      },
      {
        "astId": 2104,
        "contract": "contracts/Snake.sol:Snake",
        "label": "fee",
        "offset": 0,
        "slot": "9",
        "type": "t_uint256"
      },
      {
        "astId": 2106,
        "contract": "contracts/Snake.sol:Snake",
        "label": "tokenCounter",
        "offset": 0,
        "slot": "10",
        "type": "t_uint256"
      },
      {
        "astId": 2108,
        "contract": "contracts/Snake.sol:Snake",
        "label": "maxNumberOfPaths",
        "offset": 0,
        "slot": "11",
        "type": "t_uint256"
      },
      {
        "astId": 2110,
        "contract": "contracts/Snake.sol:Snake",
        "label": "maxNumberOfPathCommands",
        "offset": 0,
        "slot": "12",
        "type": "t_uint256"
      },
      {
        "astId": 2114,
        "contract": "contracts/Snake.sol:Snake",
        "label": "requestIdToSender",
        "offset": 0,
        "slot": "13",
        "type": "t_mapping(t_bytes32,t_address)"
      },
      {
        "astId": 2118,
        "contract": "contracts/Snake.sol:Snake",
        "label": "requestIdToTokenId",
        "offset": 0,
        "slot": "14",
        "type": "t_mapping(t_bytes32,t_uint256)"
      },
      {
        "astId": 2122,
        "contract": "contracts/Snake.sol:Snake",
        "label": "tokenIdToRandomNumber",
        "offset": 0,
        "slot": "15",
        "type": "t_mapping(t_uint256,t_uint256)"
      }
    ],
    "types": {
      "t_address": {
        "encoding": "inplace",
        "label": "address",
        "numberOfBytes": "20"
      },
      "t_bool": {
        "encoding": "inplace",
        "label": "bool",
        "numberOfBytes": "1"
      },
      "t_bytes32": {
        "encoding": "inplace",
        "label": "bytes32",
        "numberOfBytes": "32"
      },
      "t_mapping(t_address,t_bool)": {
        "encoding": "mapping",
        "key": "t_address",
        "label": "mapping(address => bool)",
        "numberOfBytes": "32",
        "value": "t_bool"
      },
      "t_mapping(t_address,t_mapping(t_address,t_bool))": {
        "encoding": "mapping",
        "key": "t_address",
        "label": "mapping(address => mapping(address => bool))",
        "numberOfBytes": "32",
        "value": "t_mapping(t_address,t_bool)"
      },
      "t_mapping(t_address,t_uint256)": {
        "encoding": "mapping",
        "key": "t_address",
        "label": "mapping(address => uint256)",
        "numberOfBytes": "32",
        "value": "t_uint256"
      },
      "t_mapping(t_bytes32,t_address)": {
        "encoding": "mapping",
        "key": "t_bytes32",
        "label": "mapping(bytes32 => address)",
        "numberOfBytes": "32",
        "value": "t_address"
      },
      "t_mapping(t_bytes32,t_uint256)": {
        "encoding": "mapping",
        "key": "t_bytes32",
        "label": "mapping(bytes32 => uint256)",
        "numberOfBytes": "32",
        "value": "t_uint256"
      },
      "t_mapping(t_uint256,t_address)": {
        "encoding": "mapping",
        "key": "t_uint256",
        "label": "mapping(uint256 => address)",
        "numberOfBytes": "32",
        "value": "t_address"
      },
      "t_mapping(t_uint256,t_string_storage)": {
        "encoding": "mapping",
        "key": "t_uint256",
        "label": "mapping(uint256 => string)",
        "numberOfBytes": "32",
        "value": "t_string_storage"
      },
      "t_mapping(t_uint256,t_uint256)": {
        "encoding": "mapping",
        "key": "t_uint256",
        "label": "mapping(uint256 => uint256)",
        "numberOfBytes": "32",
        "value": "t_uint256"
      },
      "t_string_storage": {
        "encoding": "bytes",
        "label": "string",
        "numberOfBytes": "32"
      },
      "t_uint256": {
        "encoding": "inplace",
        "label": "uint256",
        "numberOfBytes": "32"
      }
    }
  }
}